{
  "contractName": "CroudFunding",
  "abi": [
    {
      "inputs": [
        {
          "internalType": "address",
          "name": "",
          "type": "address"
        },
        {
          "internalType": "uint256",
          "name": "",
          "type": "uint256"
        }
      ],
      "name": "donations",
      "outputs": [
        {
          "internalType": "string",
          "name": "decription",
          "type": "string"
        },
        {
          "internalType": "uint256",
          "name": "amount",
          "type": "uint256"
        },
        {
          "internalType": "uint256",
          "name": "fund",
          "type": "uint256"
        },
        {
          "internalType": "address",
          "name": "fundraiser",
          "type": "address"
        },
        {
          "internalType": "bool",
          "name": "withdraw",
          "type": "bool"
        }
      ],
      "stateMutability": "view",
      "type": "function",
      "constant": true
    },
    {
      "stateMutability": "payable",
      "type": "receive",
      "payable": true
    },
    {
      "inputs": [
        {
          "internalType": "uint256",
          "name": "amount",
          "type": "uint256"
        },
        {
          "internalType": "string",
          "name": "description",
          "type": "string"
        }
      ],
      "name": "createDonation",
      "outputs": [
        {
          "internalType": "address",
          "name": "",
          "type": "address"
        },
        {
          "internalType": "uint256",
          "name": "",
          "type": "uint256"
        }
      ],
      "stateMutability": "nonpayable",
      "type": "function"
    },
    {
      "inputs": [
        {
          "internalType": "address payable",
          "name": "addr",
          "type": "address"
        },
        {
          "internalType": "uint256",
          "name": "id",
          "type": "uint256"
        }
      ],
      "name": "donatate",
      "outputs": [],
      "stateMutability": "payable",
      "type": "function",
      "payable": true
    }
  ],
  "bytecode": "0x608060405234801561001057600080fd5b50610f6c806100206000396000f3fe6080604052600436106100385760003560e01c806333fa676e14610044578063896879031461008257806395086ed11461009e5761003f565b3661003f57005b600080fd5b34801561005057600080fd5b5061006b60048036038101906100669190610b42565b6100df565b604051610079929190610c6f565b60405180910390f35b61009c60048036038101906100979190610aca565b6102c3565b005b3480156100aa57600080fd5b506100c560048036038101906100c09190610b06565b610896565b6040516100d6959493929190610c98565b60405180910390f35b6000806000803373ffffffffffffffffffffffffffffffffffffffff1673ffffffffffffffffffffffffffffffffffffffff1681526020019081526020016000206040518060a0016040528086868080601f016020809104026020016040519081016040528093929190818152602001838380828437600081840152601f19601f820116905080830192505050505050508152602001878152602001600081526020013373ffffffffffffffffffffffffffffffffffffffff16815260200160001515815250908060018154018082558091505060019003906000526020600020906004020160009091909190915060008201518160000190805190602001906101ea92919061099e565b50602082015181600101556040820151816002015560608201518160030160006101000a81548173ffffffffffffffffffffffffffffffffffffffff021916908373ffffffffffffffffffffffffffffffffffffffff16021790555060808201518160030160146101000a81548160ff02191690831515021790555050503360016000803373ffffffffffffffffffffffffffffffffffffffff1673ffffffffffffffffffffffffffffffffffffffff168152602001908152602001600020805490506102b79190610d8f565b91509150935093915050565b6000808373ffffffffffffffffffffffffffffffffffffffff1673ffffffffffffffffffffffffffffffffffffffff1681526020019081526020016000208181548110610339577f4e487b7100000000000000000000000000000000000000000000000000000000600052603260045260246000fd5b9060005260206000209060040201600101546000808473ffffffffffffffffffffffffffffffffffffffff1673ffffffffffffffffffffffffffffffffffffffff16815260200190815260200160002082815481106103c1577f4e487b7100000000000000000000000000000000000000000000000000000000600052603260045260246000fd5b906000526020600020906004020160020154346103de9190610d39565b111561041f576040517f08c379a000000000000000000000000000000000000000000000000000000000815260040161041690610cf2565b60405180910390fd5b6000808373ffffffffffffffffffffffffffffffffffffffff1673ffffffffffffffffffffffffffffffffffffffff1681526020019081526020016000208181548110610495577f4e487b7100000000000000000000000000000000000000000000000000000000600052603260045260246000fd5b9060005260206000209060040201600101546000808473ffffffffffffffffffffffffffffffffffffffff1673ffffffffffffffffffffffffffffffffffffffff168152602001908152602001600020828154811061051d577f4e487b7100000000000000000000000000000000000000000000000000000000600052603260045260246000fd5b9060005260206000209060040201600201543461053a9190610d39565b14156107f3576000808373ffffffffffffffffffffffffffffffffffffffff1673ffffffffffffffffffffffffffffffffffffffff16815260200190815260200160002081815481106105b6577f4e487b7100000000000000000000000000000000000000000000000000000000600052603260045260246000fd5b9060005260206000209060040201600101546000808473ffffffffffffffffffffffffffffffffffffffff1673ffffffffffffffffffffffffffffffffffffffff168152602001908152602001600020828154811061063e577f4e487b7100000000000000000000000000000000000000000000000000000000600052603260045260246000fd5b90600052602060002090600402016002018190555060008273ffffffffffffffffffffffffffffffffffffffff166000808573ffffffffffffffffffffffffffffffffffffffff1673ffffffffffffffffffffffffffffffffffffffff16815260200190815260200160002083815481106106e2577f4e487b7100000000000000000000000000000000000000000000000000000000600052603260045260246000fd5b90600052602060002090600402016001015460405161070090610c5a565b60006040518083038185875af1925050503d806000811461073d576040519150601f19603f3d011682016040523d82523d6000602084013e610742565b606091505b5050905080156107ed5760016000808573ffffffffffffffffffffffffffffffffffffffff1673ffffffffffffffffffffffffffffffffffffffff16815260200190815260200160002083815481106107c4577f4e487b7100000000000000000000000000000000000000000000000000000000600052603260045260246000fd5b906000526020600020906004020160030160146101000a81548160ff0219169083151502179055505b50610892565b346000808473ffffffffffffffffffffffffffffffffffffffff1673ffffffffffffffffffffffffffffffffffffffff168152602001908152602001600020828154811061086a577f4e487b7100000000000000000000000000000000000000000000000000000000600052603260045260246000fd5b9060005260206000209060040201600201600082825461088a9190610d39565b925050819055505b5050565b600060205281600052604060002081815481106108b257600080fd5b9060005260206000209060040201600091509150508060000180546108d690610e50565b80601f016020809104026020016040519081016040528092919081815260200182805461090290610e50565b801561094f5780601f106109245761010080835404028352916020019161094f565b820191906000526020600020905b81548152906001019060200180831161093257829003601f168201915b5050505050908060010154908060020154908060030160009054906101000a900473ffffffffffffffffffffffffffffffffffffffff16908060030160149054906101000a900460ff16905085565b8280546109aa90610e50565b90600052602060002090601f0160209004810192826109cc5760008555610a13565b82601f106109e557805160ff1916838001178555610a13565b82800160010185558215610a13579182015b82811115610a125782518255916020019190600101906109f7565b5b509050610a209190610a24565b5090565b5b80821115610a3d576000816000905550600101610a25565b5090565b600081359050610a5081610ef1565b92915050565b600081359050610a6581610f08565b92915050565b60008083601f840112610a7d57600080fd5b8235905067ffffffffffffffff811115610a9657600080fd5b602083019150836001820283011115610aae57600080fd5b9250929050565b600081359050610ac481610f1f565b92915050565b60008060408385031215610add57600080fd5b6000610aeb85828601610a56565b9250506020610afc85828601610ab5565b9150509250929050565b60008060408385031215610b1957600080fd5b6000610b2785828601610a41565b9250506020610b3885828601610ab5565b9150509250929050565b600080600060408486031215610b5757600080fd5b6000610b6586828701610ab5565b935050602084013567ffffffffffffffff811115610b8257600080fd5b610b8e86828701610a6b565b92509250509250925092565b610ba381610dc3565b82525050565b610bb281610de7565b82525050565b6000610bc382610d12565b610bcd8185610d28565b9350610bdd818560208601610e1d565b610be681610ee0565b840191505092915050565b6000610bfe602083610d28565b91507f506c656173652073656e64206f6e6c7920726571756972656420616d6f756e746000830152602082019050919050565b6000610c3e600083610d1d565b9150600082019050919050565b610c5481610e13565b82525050565b6000610c6582610c31565b9150819050919050565b6000604082019050610c846000830185610b9a565b610c916020830184610c4b565b9392505050565b600060a0820190508181036000830152610cb28188610bb8565b9050610cc16020830187610c4b565b610cce6040830186610c4b565b610cdb6060830185610b9a565b610ce86080830184610ba9565b9695505050505050565b60006020820190508181036000830152610d0b81610bf1565b9050919050565b600081519050919050565b600081905092915050565b600082825260208201905092915050565b6000610d4482610e13565b9150610d4f83610e13565b9250827fffffffffffffffffffffffffffffffffffffffffffffffffffffffffffffffff03821115610d8457610d83610e82565b5b828201905092915050565b6000610d9a82610e13565b9150610da583610e13565b925082821015610db857610db7610e82565b5b828203905092915050565b6000610dce82610df3565b9050919050565b6000610de082610df3565b9050919050565b60008115159050919050565b600073ffffffffffffffffffffffffffffffffffffffff82169050919050565b6000819050919050565b60005b83811015610e3b578082015181840152602081019050610e20565b83811115610e4a576000848401525b50505050565b60006002820490506001821680610e6857607f821691505b60208210811415610e7c57610e7b610eb1565b5b50919050565b7f4e487b7100000000000000000000000000000000000000000000000000000000600052601160045260246000fd5b7f4e487b7100000000000000000000000000000000000000000000000000000000600052602260045260246000fd5b6000601f19601f8301169050919050565b610efa81610dc3565b8114610f0557600080fd5b50565b610f1181610dd5565b8114610f1c57600080fd5b50565b610f2881610e13565b8114610f3357600080fd5b5056fea2646970667358221220dbe9f14d02af2a676b5a727c42555bc32c2ee3b161b1208767f885c6a3870eba64736f6c63430008000033",
  "immutableReferences": {},
  "source": "// SPDX-License-Identifier: MIT\npragma solidity >=0.6.12 <0.9.0;\n\nstruct Donation {\n  string decription ;\n  uint amount ;\n  uint fund ;\n  address fundraiser ;\n  bool withdraw ;\n}\n\nstruct Transaction {\n  address donater;\n  uint amount;\n}\n\n\ncontract CroudFunding {\n  mapping(address =>  Donation[]) public donations ;\n\n  function createDonation(uint amount,string calldata description ) public returns (address ,uint) {\n    // Transaction[] storage transations = new Transaction[](0);\n    donations[msg.sender].push(Donation(description,amount,0,msg.sender,false)); \n    return (msg.sender, donations[msg.sender].length -1) ;\n  }\n  receive() external payable { }\n\n  function donatate( address payable  addr, uint id ) external payable  {\n    require(msg.value + donations[addr][id].fund <= donations[addr][id].amount,\"Please send only required amount\")  ;\n    if (msg.value + donations[addr][id].fund == donations[addr][id].amount){\n      donations[addr][id].fund = donations[addr][id].amount ;\n      (bool result,) = addr.call{value : donations[addr][id].amount}(\"\") ;\n      if(result) {\n        donations[addr][id].withdraw = true; \n      }\n    }\n    else {\n      donations[addr][id].fund += msg.value ;\n    }\n  }\n\n}",
  "sourcePath": "/Users/arunmugunthanr/Documents/Clg-proj/crowdfunding/backend/contracts/crowdfunding.sol",
  "compiler": {
    "name": "solc",
    "version": "0.8.0+commit.c7dfd78e.Emscripten.clang"
  },
  "schemaVersion": "3.4.16",
  "updatedAt": "2024-02-24T08:57:38.416Z",
  "networkType": "ethereum",
  "devdoc": {
    "kind": "dev",
    "methods": {},
    "version": 1
  },
  "userdoc": {
    "kind": "user",
    "methods": {},
    "version": 1
  }
}