{
  "contractName": "CroudFunding",
  "abi": [
    {
      "inputs": [
        {
          "internalType": "address",
          "name": "",
          "type": "address"
        },
        {
          "internalType": "uint256",
          "name": "",
          "type": "uint256"
        }
      ],
      "name": "donations",
      "outputs": [
        {
          "internalType": "uint256",
          "name": "id",
          "type": "uint256"
        },
        {
          "internalType": "string",
          "name": "patientName",
          "type": "string"
        },
        {
          "internalType": "string",
          "name": "title",
          "type": "string"
        },
        {
          "internalType": "string",
          "name": "medicalCondition",
          "type": "string"
        },
        {
          "internalType": "string",
          "name": "hospitalName",
          "type": "string"
        },
        {
          "internalType": "string",
          "name": "description",
          "type": "string"
        },
        {
          "internalType": "uint256",
          "name": "amount",
          "type": "uint256"
        },
        {
          "internalType": "uint256",
          "name": "fund",
          "type": "uint256"
        },
        {
          "internalType": "address",
          "name": "fundraiser",
          "type": "address"
        },
        {
          "internalType": "bool",
          "name": "withdraw",
          "type": "bool"
        }
      ],
      "stateMutability": "view",
      "type": "function",
      "constant": true
    },
    {
      "inputs": [
        {
          "internalType": "uint256",
          "name": "",
          "type": "uint256"
        }
      ],
      "name": "people",
      "outputs": [
        {
          "internalType": "address",
          "name": "",
          "type": "address"
        }
      ],
      "stateMutability": "view",
      "type": "function",
      "constant": true
    },
    {
      "stateMutability": "payable",
      "type": "receive",
      "payable": true
    },
    {
      "inputs": [],
      "name": "myCampaigns",
      "outputs": [
        {
          "components": [
            {
              "internalType": "uint256",
              "name": "id",
              "type": "uint256"
            },
            {
              "internalType": "string",
              "name": "patientName",
              "type": "string"
            },
            {
              "internalType": "string",
              "name": "title",
              "type": "string"
            },
            {
              "internalType": "string",
              "name": "medicalCondition",
              "type": "string"
            },
            {
              "internalType": "string",
              "name": "hospitalName",
              "type": "string"
            },
            {
              "internalType": "string",
              "name": "description",
              "type": "string"
            },
            {
              "internalType": "uint256",
              "name": "amount",
              "type": "uint256"
            },
            {
              "internalType": "uint256",
              "name": "fund",
              "type": "uint256"
            },
            {
              "internalType": "address",
              "name": "fundraiser",
              "type": "address"
            },
            {
              "internalType": "bool",
              "name": "withdraw",
              "type": "bool"
            }
          ],
          "internalType": "struct Donation[]",
          "name": "",
          "type": "tuple[]"
        }
      ],
      "stateMutability": "view",
      "type": "function",
      "constant": true
    },
    {
      "inputs": [],
      "name": "allCampaigns",
      "outputs": [
        {
          "components": [
            {
              "internalType": "uint256",
              "name": "id",
              "type": "uint256"
            },
            {
              "internalType": "string",
              "name": "patientName",
              "type": "string"
            },
            {
              "internalType": "string",
              "name": "title",
              "type": "string"
            },
            {
              "internalType": "string",
              "name": "medicalCondition",
              "type": "string"
            },
            {
              "internalType": "string",
              "name": "hospitalName",
              "type": "string"
            },
            {
              "internalType": "string",
              "name": "description",
              "type": "string"
            },
            {
              "internalType": "uint256",
              "name": "amount",
              "type": "uint256"
            },
            {
              "internalType": "uint256",
              "name": "fund",
              "type": "uint256"
            },
            {
              "internalType": "address",
              "name": "fundraiser",
              "type": "address"
            },
            {
              "internalType": "bool",
              "name": "withdraw",
              "type": "bool"
            }
          ],
          "internalType": "struct Donation[]",
          "name": "",
          "type": "tuple[]"
        }
      ],
      "stateMutability": "view",
      "type": "function",
      "constant": true
    },
    {
      "inputs": [
        {
          "internalType": "address",
          "name": "fundraiser",
          "type": "address"
        },
        {
          "internalType": "uint256",
          "name": "id",
          "type": "uint256"
        }
      ],
      "name": "getDonation",
      "outputs": [
        {
          "components": [
            {
              "internalType": "uint256",
              "name": "id",
              "type": "uint256"
            },
            {
              "internalType": "string",
              "name": "patientName",
              "type": "string"
            },
            {
              "internalType": "string",
              "name": "title",
              "type": "string"
            },
            {
              "internalType": "string",
              "name": "medicalCondition",
              "type": "string"
            },
            {
              "internalType": "string",
              "name": "hospitalName",
              "type": "string"
            },
            {
              "internalType": "string",
              "name": "description",
              "type": "string"
            },
            {
              "internalType": "uint256",
              "name": "amount",
              "type": "uint256"
            },
            {
              "internalType": "uint256",
              "name": "fund",
              "type": "uint256"
            },
            {
              "internalType": "address",
              "name": "fundraiser",
              "type": "address"
            },
            {
              "internalType": "bool",
              "name": "withdraw",
              "type": "bool"
            }
          ],
          "internalType": "struct Donation",
          "name": "",
          "type": "tuple"
        }
      ],
      "stateMutability": "view",
      "type": "function",
      "constant": true
    },
    {
      "inputs": [
        {
          "internalType": "address",
          "name": "person",
          "type": "address"
        }
      ],
      "name": "personIn",
      "outputs": [
        {
          "internalType": "bool",
          "name": "",
          "type": "bool"
        }
      ],
      "stateMutability": "view",
      "type": "function",
      "constant": true
    },
    {
      "inputs": [
        {
          "internalType": "uint256",
          "name": "amount",
          "type": "uint256"
        },
        {
          "internalType": "string",
          "name": "patientName",
          "type": "string"
        },
        {
          "internalType": "string",
          "name": "title",
          "type": "string"
        },
        {
          "internalType": "string",
          "name": "medicalCondition",
          "type": "string"
        },
        {
          "internalType": "string",
          "name": "hospitalName",
          "type": "string"
        },
        {
          "internalType": "string",
          "name": "description",
          "type": "string"
        }
      ],
      "name": "createDonation",
      "outputs": [
        {
          "components": [
            {
              "internalType": "uint256",
              "name": "id",
              "type": "uint256"
            },
            {
              "internalType": "string",
              "name": "patientName",
              "type": "string"
            },
            {
              "internalType": "string",
              "name": "title",
              "type": "string"
            },
            {
              "internalType": "string",
              "name": "medicalCondition",
              "type": "string"
            },
            {
              "internalType": "string",
              "name": "hospitalName",
              "type": "string"
            },
            {
              "internalType": "string",
              "name": "description",
              "type": "string"
            },
            {
              "internalType": "uint256",
              "name": "amount",
              "type": "uint256"
            },
            {
              "internalType": "uint256",
              "name": "fund",
              "type": "uint256"
            },
            {
              "internalType": "address",
              "name": "fundraiser",
              "type": "address"
            },
            {
              "internalType": "bool",
              "name": "withdraw",
              "type": "bool"
            }
          ],
          "internalType": "struct Donation",
          "name": "",
          "type": "tuple"
        }
      ],
      "stateMutability": "nonpayable",
      "type": "function"
    },
    {
      "inputs": [
        {
          "internalType": "address payable",
          "name": "addr",
          "type": "address"
        },
        {
          "internalType": "uint256",
          "name": "id",
          "type": "uint256"
        }
      ],
      "name": "donate",
      "outputs": [],
      "stateMutability": "payable",
      "type": "function",
      "payable": true
    }
  ],
  "bytecode": "0x608060405234801561001057600080fd5b50612932806100206000396000f3fe60806040526004361061007f5760003560e01c80639e7a13ad1161004e5780639e7a13ad14610176578063bbd6ac3c146101b3578063e69d849d146101de578063edd975c2146101fa57610086565b806338e48f701461008b5780633ccadf05146100c85780637330f3ed1461010557806395086ed11461013057610086565b3661008657005b600080fd5b34801561009757600080fd5b506100b260048036038101906100ad9190611edf565b610237565b6040516100bf91906120e7565b60405180910390f35b3480156100d457600080fd5b506100ef60048036038101906100ea919061216e565b61061b565b6040516100fc91906120e7565b60405180910390f35b34801561011157600080fd5b5061011a610a5f565b6040516101279190612457565b60405180910390f35b34801561013c57600080fd5b5061015760048036038101906101529190611edf565b611074565b60405161016d9a999897969594939291906124f0565b60405180910390f35b34801561018257600080fd5b5061019d600480360381019061019891906125af565b6113ba565b6040516101aa91906125dc565b60405180910390f35b3480156101bf57600080fd5b506101c86113f9565b6040516101d59190612457565b60405180910390f35b6101f860048036038101906101f39190612635565b6117ff565b005b34801561020657600080fd5b50610221600480360381019061021c9190612675565b611c84565b60405161022e91906126a2565b60405180910390f35b61023f611d33565b600160008473ffffffffffffffffffffffffffffffffffffffff1673ffffffffffffffffffffffffffffffffffffffff16815260200190815260200160002082815481106102905761028f6126bd565b5b906000526020600020906009020160405180610140016040529081600082015481526020016001820180546102c49061271b565b80601f01602080910402602001604051908101604052809291908181526020018280546102f09061271b565b801561033d5780601f106103125761010080835404028352916020019161033d565b820191906000526020600020905b81548152906001019060200180831161032057829003601f168201915b505050505081526020016002820180546103569061271b565b80601f01602080910402602001604051908101604052809291908181526020018280546103829061271b565b80156103cf5780601f106103a4576101008083540402835291602001916103cf565b820191906000526020600020905b8154815290600101906020018083116103b257829003601f168201915b505050505081526020016003820180546103e89061271b565b80601f01602080910402602001604051908101604052809291908181526020018280546104149061271b565b80156104615780601f1061043657610100808354040283529160200191610461565b820191906000526020600020905b81548152906001019060200180831161044457829003601f168201915b5050505050815260200160048201805461047a9061271b565b80601f01602080910402602001604051908101604052809291908181526020018280546104a69061271b565b80156104f35780601f106104c8576101008083540402835291602001916104f3565b820191906000526020600020905b8154815290600101906020018083116104d657829003601f168201915b5050505050815260200160058201805461050c9061271b565b80601f01602080910402602001604051908101604052809291908181526020018280546105389061271b565b80156105855780601f1061055a57610100808354040283529160200191610585565b820191906000526020600020905b81548152906001019060200180831161056857829003601f168201915b5050505050815260200160068201548152602001600782015481526020016008820160009054906101000a900473ffffffffffffffffffffffffffffffffffffffff1673ffffffffffffffffffffffffffffffffffffffff1673ffffffffffffffffffffffffffffffffffffffff1681526020016008820160149054906101000a900460ff161515151581525050905092915050565b610623611d33565b61062b611d33565b600160003373ffffffffffffffffffffffffffffffffffffffff1673ffffffffffffffffffffffffffffffffffffffff168152602001908152602001600020805490508160000181815250508c8160c00181815250508b8b8080601f016020809104026020016040519081016040528093929190818152602001838380828437600081840152601f19601f82011690508083019250505050505050816020018190525089898080601f016020809104026020016040519081016040528093929190818152602001838380828437600081840152601f19601f82011690508083019250505050505050816040018190525087878080601f016020809104026020016040519081016040528093929190818152602001838380828437600081840152601f19601f82011690508083019250505050505050816060018190525085858080601f016020809104026020016040519081016040528093929190818152602001838380828437600081840152601f19601f82011690508083019250505050505050816080018190525083838080601f016020809104026020016040519081016040528093929190818152602001838380828437600081840152601f19601f820116905080830192505050505050508160a001819052503381610100019073ffffffffffffffffffffffffffffffffffffffff16908173ffffffffffffffffffffffffffffffffffffffff168152505060008161012001901515908115158152505060008160e0018181525050600160003373ffffffffffffffffffffffffffffffffffffffff1673ffffffffffffffffffffffffffffffffffffffff1681526020019081526020016000208190806001815401808255809150506001900390600052602060002090600902016000909190919091506000820151816000015560208201518160010190805190602001906108e7929190611d9e565b506040820151816002019080519060200190610904929190611d9e565b506060820151816003019080519060200190610921929190611d9e565b50608082015181600401908051906020019061093e929190611d9e565b5060a082015181600501908051906020019061095b929190611d9e565b5060c0820151816006015560e082015181600701556101008201518160080160006101000a81548173ffffffffffffffffffffffffffffffffffffffff021916908373ffffffffffffffffffffffffffffffffffffffff1602179055506101208201518160080160146101000a81548160ff02191690831515021790555050506109e433611c84565b610a4c576000339080600181540180825580915050600190039060005260206000200160009091909190916101000a81548173ffffffffffffffffffffffffffffffffffffffff021916908373ffffffffffffffffffffffffffffffffffffffff1602179055505b809150509b9a5050505050505050505050565b60606000805b600080549050811015610b125760016000808381548110610a8957610a886126bd565b5b9060005260206000200160009054906101000a900473ffffffffffffffffffffffffffffffffffffffff1673ffffffffffffffffffffffffffffffffffffffff1673ffffffffffffffffffffffffffffffffffffffff1681526020019081526020016000208054905082610afd919061277c565b91508080610b0a906127d2565b915050610a65565b5060008167ffffffffffffffff811115610b2f57610b2e61281b565b5b604051908082528060200260200182016040528015610b6857816020015b610b55611d33565b815260200190600190039081610b4d5790505b5090506000805b60008054905081101561106a5760005b60016000808481548110610b9657610b956126bd565b5b9060005260206000200160009054906101000a900473ffffffffffffffffffffffffffffffffffffffff1673ffffffffffffffffffffffffffffffffffffffff1673ffffffffffffffffffffffffffffffffffffffff168152602001908152602001600020805490508110156110565760016000808481548110610c1d57610c1c6126bd565b5b9060005260206000200160009054906101000a900473ffffffffffffffffffffffffffffffffffffffff1673ffffffffffffffffffffffffffffffffffffffff1673ffffffffffffffffffffffffffffffffffffffff1681526020019081526020016000208181548110610c9457610c936126bd565b5b90600052602060002090600902016040518061014001604052908160008201548152602001600182018054610cc89061271b565b80601f0160208091040260200160405190810160405280929190818152602001828054610cf49061271b565b8015610d415780601f10610d1657610100808354040283529160200191610d41565b820191906000526020600020905b815481529060010190602001808311610d2457829003601f168201915b50505050508152602001600282018054610d5a9061271b565b80601f0160208091040260200160405190810160405280929190818152602001828054610d869061271b565b8015610dd35780601f10610da857610100808354040283529160200191610dd3565b820191906000526020600020905b815481529060010190602001808311610db657829003601f168201915b50505050508152602001600382018054610dec9061271b565b80601f0160208091040260200160405190810160405280929190818152602001828054610e189061271b565b8015610e655780601f10610e3a57610100808354040283529160200191610e65565b820191906000526020600020905b815481529060010190602001808311610e4857829003601f168201915b50505050508152602001600482018054610e7e9061271b565b80601f0160208091040260200160405190810160405280929190818152602001828054610eaa9061271b565b8015610ef75780601f10610ecc57610100808354040283529160200191610ef7565b820191906000526020600020905b815481529060010190602001808311610eda57829003601f168201915b50505050508152602001600582018054610f109061271b565b80601f0160208091040260200160405190810160405280929190818152602001828054610f3c9061271b565b8015610f895780601f10610f5e57610100808354040283529160200191610f89565b820191906000526020600020905b815481529060010190602001808311610f6c57829003601f168201915b5050505050815260200160068201548152602001600782015481526020016008820160009054906101000a900473ffffffffffffffffffffffffffffffffffffffff1673ffffffffffffffffffffffffffffffffffffffff1673ffffffffffffffffffffffffffffffffffffffff1681526020016008820160149054906101000a900460ff16151515158152505084848151811061102a576110296126bd565b5b60200260200101819052508280611040906127d2565b935050808061104e906127d2565b915050610b7f565b508080611062906127d2565b915050610b6f565b5081935050505090565b6001602052816000526040600020818154811061109057600080fd5b9060005260206000209060090201600091509150508060000154908060010180546110ba9061271b565b80601f01602080910402602001604051908101604052809291908181526020018280546110e69061271b565b80156111335780601f1061110857610100808354040283529160200191611133565b820191906000526020600020905b81548152906001019060200180831161111657829003601f168201915b5050505050908060020180546111489061271b565b80601f01602080910402602001604051908101604052809291908181526020018280546111749061271b565b80156111c15780601f10611196576101008083540402835291602001916111c1565b820191906000526020600020905b8154815290600101906020018083116111a457829003601f168201915b5050505050908060030180546111d69061271b565b80601f01602080910402602001604051908101604052809291908181526020018280546112029061271b565b801561124f5780601f106112245761010080835404028352916020019161124f565b820191906000526020600020905b81548152906001019060200180831161123257829003601f168201915b5050505050908060040180546112649061271b565b80601f01602080910402602001604051908101604052809291908181526020018280546112909061271b565b80156112dd5780601f106112b2576101008083540402835291602001916112dd565b820191906000526020600020905b8154815290600101906020018083116112c057829003601f168201915b5050505050908060050180546112f29061271b565b80601f016020809104026020016040519081016040528092919081815260200182805461131e9061271b565b801561136b5780601f106113405761010080835404028352916020019161136b565b820191906000526020600020905b81548152906001019060200180831161134e57829003601f168201915b5050505050908060060154908060070154908060080160009054906101000a900473ffffffffffffffffffffffffffffffffffffffff16908060080160149054906101000a900460ff1690508a565b600081815481106113ca57600080fd5b906000526020600020016000915054906101000a900473ffffffffffffffffffffffffffffffffffffffff1681565b6060600160003373ffffffffffffffffffffffffffffffffffffffff1673ffffffffffffffffffffffffffffffffffffffff168152602001908152602001600020805480602002602001604051908101604052809291908181526020016000905b828210156117f6578382906000526020600020906009020160405180610140016040529081600082015481526020016001820180546114989061271b565b80601f01602080910402602001604051908101604052809291908181526020018280546114c49061271b565b80156115115780601f106114e657610100808354040283529160200191611511565b820191906000526020600020905b8154815290600101906020018083116114f457829003601f168201915b5050505050815260200160028201805461152a9061271b565b80601f01602080910402602001604051908101604052809291908181526020018280546115569061271b565b80156115a35780601f10611578576101008083540402835291602001916115a3565b820191906000526020600020905b81548152906001019060200180831161158657829003601f168201915b505050505081526020016003820180546115bc9061271b565b80601f01602080910402602001604051908101604052809291908181526020018280546115e89061271b565b80156116355780601f1061160a57610100808354040283529160200191611635565b820191906000526020600020905b81548152906001019060200180831161161857829003601f168201915b5050505050815260200160048201805461164e9061271b565b80601f016020809104026020016040519081016040528092919081815260200182805461167a9061271b565b80156116c75780601f1061169c576101008083540402835291602001916116c7565b820191906000526020600020905b8154815290600101906020018083116116aa57829003601f168201915b505050505081526020016005820180546116e09061271b565b80601f016020809104026020016040519081016040528092919081815260200182805461170c9061271b565b80156117595780601f1061172e57610100808354040283529160200191611759565b820191906000526020600020905b81548152906001019060200180831161173c57829003601f168201915b5050505050815260200160068201548152602001600782015481526020016008820160009054906101000a900473ffffffffffffffffffffffffffffffffffffffff1673ffffffffffffffffffffffffffffffffffffffff1673ffffffffffffffffffffffffffffffffffffffff1681526020016008820160149054906101000a900460ff1615151515815250508152602001906001019061145a565b50505050905090565b600160008373ffffffffffffffffffffffffffffffffffffffff1673ffffffffffffffffffffffffffffffffffffffff16815260200190815260200160002081815481106118505761184f6126bd565b5b906000526020600020906009020160060154600160008473ffffffffffffffffffffffffffffffffffffffff1673ffffffffffffffffffffffffffffffffffffffff16815260200190815260200160002082815481106118b3576118b26126bd565b5b906000526020600020906009020160070154346118d0919061277c565b1115611911576040517f08c379a000000000000000000000000000000000000000000000000000000000815260040161190890612896565b60405180910390fd5b600160008373ffffffffffffffffffffffffffffffffffffffff1673ffffffffffffffffffffffffffffffffffffffff1681526020019081526020016000208181548110611962576119616126bd565b5b906000526020600020906009020160060154600160008473ffffffffffffffffffffffffffffffffffffffff1673ffffffffffffffffffffffffffffffffffffffff16815260200190815260200160002082815481106119c5576119c46126bd565b5b906000526020600020906009020160070154346119e2919061277c565b1415611c0657600160008373ffffffffffffffffffffffffffffffffffffffff1673ffffffffffffffffffffffffffffffffffffffff1681526020019081526020016000208181548110611a3957611a386126bd565b5b906000526020600020906009020160060154600160008473ffffffffffffffffffffffffffffffffffffffff1673ffffffffffffffffffffffffffffffffffffffff1681526020019081526020016000208281548110611a9c57611a9b6126bd565b5b90600052602060002090600902016007018190555060008273ffffffffffffffffffffffffffffffffffffffff16600160008573ffffffffffffffffffffffffffffffffffffffff1673ffffffffffffffffffffffffffffffffffffffff1681526020019081526020016000208381548110611b1b57611b1a6126bd565b5b906000526020600020906009020160060154604051611b39906128e7565b60006040518083038185875af1925050503d8060008114611b76576040519150601f19603f3d011682016040523d82523d6000602084013e611b7b565b606091505b505090508015611c005760018060008573ffffffffffffffffffffffffffffffffffffffff1673ffffffffffffffffffffffffffffffffffffffff1681526020019081526020016000208381548110611bd757611bd66126bd565b5b906000526020600020906009020160080160146101000a81548160ff0219169083151502179055505b50611c80565b34600160008473ffffffffffffffffffffffffffffffffffffffff1673ffffffffffffffffffffffffffffffffffffffff1681526020019081526020016000208281548110611c5857611c576126bd565b5b90600052602060002090600902016007016000828254611c78919061277c565b925050819055505b5050565b600080600090505b600080549050811015611d28578273ffffffffffffffffffffffffffffffffffffffff1660008281548110611cc457611cc36126bd565b5b9060005260206000200160009054906101000a900473ffffffffffffffffffffffffffffffffffffffff1673ffffffffffffffffffffffffffffffffffffffff161415611d15576001915050611d2e565b8080611d20906127d2565b915050611c8c565b50600090505b919050565b6040518061014001604052806000815260200160608152602001606081526020016060815260200160608152602001606081526020016000815260200160008152602001600073ffffffffffffffffffffffffffffffffffffffff1681526020016000151581525090565b828054611daa9061271b565b90600052602060002090601f016020900481019282611dcc5760008555611e13565b82601f10611de557805160ff1916838001178555611e13565b82800160010185558215611e13579182015b82811115611e12578251825591602001919060010190611df7565b5b509050611e209190611e24565b5090565b5b80821115611e3d576000816000905550600101611e25565b5090565b600080fd5b600080fd5b600073ffffffffffffffffffffffffffffffffffffffff82169050919050565b6000611e7682611e4b565b9050919050565b611e8681611e6b565b8114611e9157600080fd5b50565b600081359050611ea381611e7d565b92915050565b6000819050919050565b611ebc81611ea9565b8114611ec757600080fd5b50565b600081359050611ed981611eb3565b92915050565b60008060408385031215611ef657611ef5611e41565b5b6000611f0485828601611e94565b9250506020611f1585828601611eca565b9150509250929050565b611f2881611ea9565b82525050565b600081519050919050565b600082825260208201905092915050565b60005b83811015611f68578082015181840152602081019050611f4d565b83811115611f77576000848401525b50505050565b6000601f19601f8301169050919050565b6000611f9982611f2e565b611fa38185611f39565b9350611fb3818560208601611f4a565b611fbc81611f7d565b840191505092915050565b611fd081611e6b565b82525050565b60008115159050919050565b611feb81611fd6565b82525050565b60006101408301600083015161200a6000860182611f1f565b50602083015184820360208601526120228282611f8e565b9150506040830151848203604086015261203c8282611f8e565b915050606083015184820360608601526120568282611f8e565b915050608083015184820360808601526120708282611f8e565b91505060a083015184820360a086015261208a8282611f8e565b91505060c083015161209f60c0860182611f1f565b5060e08301516120b260e0860182611f1f565b506101008301516120c7610100860182611fc7565b506101208301516120dc610120860182611fe2565b508091505092915050565b600060208201905081810360008301526121018184611ff1565b905092915050565b600080fd5b600080fd5b600080fd5b60008083601f84011261212e5761212d612109565b5b8235905067ffffffffffffffff81111561214b5761214a61210e565b5b60208301915083600182028301111561216757612166612113565b5b9250929050565b600080600080600080600080600080600060c08c8e03121561219357612192611e41565b5b60006121a18e828f01611eca565b9b505060208c013567ffffffffffffffff8111156121c2576121c1611e46565b5b6121ce8e828f01612118565b9a509a505060408c013567ffffffffffffffff8111156121f1576121f0611e46565b5b6121fd8e828f01612118565b985098505060608c013567ffffffffffffffff8111156122205761221f611e46565b5b61222c8e828f01612118565b965096505060808c013567ffffffffffffffff81111561224f5761224e611e46565b5b61225b8e828f01612118565b945094505060a08c013567ffffffffffffffff81111561227e5761227d611e46565b5b61228a8e828f01612118565b92509250509295989b509295989b9093969950565b600081519050919050565b600082825260208201905092915050565b6000819050602082019050919050565b6000610140830160008301516122e46000860182611f1f565b50602083015184820360208601526122fc8282611f8e565b915050604083015184820360408601526123168282611f8e565b915050606083015184820360608601526123308282611f8e565b9150506080830151848203608086015261234a8282611f8e565b91505060a083015184820360a08601526123648282611f8e565b91505060c083015161237960c0860182611f1f565b5060e083015161238c60e0860182611f1f565b506101008301516123a1610100860182611fc7565b506101208301516123b6610120860182611fe2565b508091505092915050565b60006123cd83836122cb565b905092915050565b6000602082019050919050565b60006123ed8261229f565b6123f781856122aa565b935083602082028501612409856122bb565b8060005b85811015612445578484038952815161242685826123c1565b9450612431836123d5565b925060208a0199505060018101905061240d565b50829750879550505050505092915050565b6000602082019050818103600083015261247181846123e2565b905092915050565b61248281611ea9565b82525050565b600082825260208201905092915050565b60006124a482611f2e565b6124ae8185612488565b93506124be818560208601611f4a565b6124c781611f7d565b840191505092915050565b6124db81611e6b565b82525050565b6124ea81611fd6565b82525050565b600061014082019050612506600083018d612479565b8181036020830152612518818c612499565b9050818103604083015261252c818b612499565b90508181036060830152612540818a612499565b905081810360808301526125548189612499565b905081810360a08301526125688188612499565b905061257760c0830187612479565b61258460e0830186612479565b6125926101008301856124d2565b6125a06101208301846124e1565b9b9a5050505050505050505050565b6000602082840312156125c5576125c4611e41565b5b60006125d384828501611eca565b91505092915050565b60006020820190506125f160008301846124d2565b92915050565b600061260282611e4b565b9050919050565b612612816125f7565b811461261d57600080fd5b50565b60008135905061262f81612609565b92915050565b6000806040838503121561264c5761264b611e41565b5b600061265a85828601612620565b925050602061266b85828601611eca565b9150509250929050565b60006020828403121561268b5761268a611e41565b5b600061269984828501611e94565b91505092915050565b60006020820190506126b760008301846124e1565b92915050565b7f4e487b7100000000000000000000000000000000000000000000000000000000600052603260045260246000fd5b7f4e487b7100000000000000000000000000000000000000000000000000000000600052602260045260246000fd5b6000600282049050600182168061273357607f821691505b60208210811415612747576127466126ec565b5b50919050565b7f4e487b7100000000000000000000000000000000000000000000000000000000600052601160045260246000fd5b600061278782611ea9565b915061279283611ea9565b9250827fffffffffffffffffffffffffffffffffffffffffffffffffffffffffffffffff038211156127c7576127c661274d565b5b828201905092915050565b60006127dd82611ea9565b91507fffffffffffffffffffffffffffffffffffffffffffffffffffffffffffffffff8214156128105761280f61274d565b5b600182019050919050565b7f4e487b7100000000000000000000000000000000000000000000000000000000600052604160045260246000fd5b7f506c656173652073656e64206f6e6c7920726571756972656420616d6f756e74600082015250565b6000612880602083612488565b915061288b8261284a565b602082019050919050565b600060208201905081810360008301526128af81612873565b9050919050565b600081905092915050565b50565b60006128d16000836128b6565b91506128dc826128c1565b600082019050919050565b60006128f2826128c4565b915081905091905056fea2646970667358221220df6291cf2e91d4ad0f7f62d9cacebcef1311f5ca5b0b32963400aac88e2fe5e564736f6c634300080a0033",
  "immutableReferences": {},
  "source": "// SPDX-License-Identifier: MIT\r\npragma solidity >=0.6.12 <0.9.0;\r\n\r\nstruct Donation {\r\n  uint id ;\r\n  string patientName;\r\n  string title;\r\n  string medicalCondition;\r\n  string hospitalName;\r\n  string description;\r\n  uint amount ;\r\n  uint fund ;\r\n  address fundraiser ;\r\n  bool withdraw ;\r\n}\r\n\r\nstruct Transaction {\r\n  address donater;\r\n  uint amount;\r\n}\r\n\r\n\r\ncontract CroudFunding {\r\n    address[] public  people ;\r\n    mapping(address => Donation[])  public  donations ;\r\n    function myCampaigns( ) public view returns ( Donation[] memory) {\r\n        return donations[msg.sender];\r\n    }\r\n    function allCampaigns () public  view returns (Donation[] memory) {\r\n         uint totalDonations = 0;\r\n        // Calculate the total number of donations to initialize the array\r\n        for (uint i = 0; i < people.length; i++) {\r\n            totalDonations += donations[people[i]].length;\r\n        }\r\n\r\n        Donation[] memory arr = new Donation[](totalDonations);\r\n        uint index = 0;\r\n\r\n        for (uint i = 0; i < people.length; i++) {\r\n            for (uint j = 0; j < donations[people[i]].length; j++) {\r\n                arr[index] = donations[people[i]][j];\r\n                index++;\r\n            }\r\n        }\r\n        return  arr; \r\n    }\r\n\r\n    function getDonation(address fundraiser,uint id)public view returns(Donation memory) {\r\n        return donations[fundraiser][id];\r\n    }\r\n\r\n    function personIn(address person) public view  returns (bool) {\r\n        for (uint i = 0; i < people.length; i++) {\r\n            if (people[i] == person) {\r\n                return true;\r\n            }\r\n        }\r\n        return false;\r\n    }\r\n  function createDonation(uint amount,string calldata patientName, string calldata title ,string calldata medicalCondition,string calldata hospitalName ,string calldata description ) public returns (Donation memory) {\r\n    // Transaction[] storage transations = new Transaction[](0);\r\n    Donation memory d ;\r\n    d.id = donations[msg.sender].length;\r\n    d.amount = amount;\r\n    d.patientName = patientName;\r\n    d.title = title;\r\n    d.medicalCondition = medicalCondition;\r\n    d.hospitalName =hospitalName;\r\n    d.description = description;\r\n    d.fundraiser = msg.sender;\r\n    d.withdraw = false;\r\n    d.fund = 0;\r\n    donations[msg.sender].push(d); \r\n    if(!personIn(msg.sender)) {\r\n        people.push(msg.sender);\r\n    }\r\n    return (d) ;\r\n  }\r\n  receive() external payable { }\r\n\r\n  function donate( address payable  addr, uint id ) external payable  {\r\n    require(msg.value + donations[addr][id].fund <= donations[addr][id].amount,\"Please send only required amount\")  ;\r\n    if (msg.value + donations[addr][id].fund == donations[addr][id].amount){\r\n      donations[addr][id].fund = donations[addr][id].amount ;\r\n      (bool result,) = addr.call{value : donations[addr][id].amount}(\"\") ;\r\n      if(result) {\r\n        donations[addr][id].withdraw = true; \r\n      }\r\n    }\r\n    else {\r\n      donations[addr][id].fund += msg.value ;\r\n    }\r\n  }\r\n\r\n}",
  "sourcePath": "D:\\project\\Crowdfunding\\backend\\contracts\\crowdfunding.sol",
  "compiler": {
    "name": "solc",
    "version": "0.8.10+commit.fc410830.Emscripten.clang"
  },
  "schemaVersion": "3.4.16",
  "updatedAt": "2024-02-25T15:41:50.244Z",
  "networkType": "ethereum",
  "devdoc": {
    "kind": "dev",
    "methods": {},
    "version": 1
  },
  "userdoc": {
    "kind": "user",
    "methods": {},
    "version": 1
  }
}